:100000000C942A000C9485080C94BB080C94F108FD
:100010000C9447000C9447000C9447000C94470044
:100020000C9447000C9447000C9447000C94FA057C
:100030000C9447000C9447000C9447000C94470024
:100040000C944C0E0C9447000C9447000C94470001
:100050000C94470011241FBECFE5D8E0DEBFCDBF12
:1000600010E0A0E6B0E0E2E9F5E402C005900D92F0
:10007000A03AB107D9F710E0A0EAB0E001C01D92A4
:10008000AB3AB107E1F70E9433220C94C7220C94DB
:100090000000EF92FF920F931F937B018C0120E0F1
:1000A00030E040E05FE40E94490388238CF0C801FF
:1000B000B70120E030E040E05FE40E94C1010E940F
:1000C000A9039B01AC01205030404040504806C07D
:1000D000C801B7010E94A9039B01AC01B901CA0183
:1000E0001F910F91FF90EF900895A0E0B0E0EBE733
:1000F000F0E00C949022DC012B01FA019C919230EB
:1001000008F439C1EB018881823008F433C194309E
:1001100069F4843009F02FC111969C91119789815F
:10012000981709F428C1A8E7B0E025C1843009F484
:1001300021C18230A9F4923009F01DC19A01AD01AC
:1001400088E0EA010990AE01E90109929E0181501F
:10015000C1F7E201898111969C918923818308C1AD
:10016000923009F407C112962D903C901397EB0141
:100170008A819B811496AD90BD90CD90DC901797AD
:10018000EC80FD800E811F819101281B390BB90184
:1001900037FF04C066277727621B730B6032710537
:1001A0000CF061C0121613066CF537014801062EDB
:1001B00004C096948794779467940A94D2F721E0C8
:1001C00030E040E050E004C0220F331F441F551FB1
:1001D0006A95D2F721503040404050402E213F21B7
:1001E00040235123211531054105510521F021E01E
:1001F00030E040E050E079018A01E628F72808293C
:1002000019293CC0232BD1F1260E371E350146019A
:10021000062E04C096948794779467940A94D2F734
:1002200021E030E040E050E004C0220F331F441FC3
:10023000551F6A95D2F721503040404050402A2146
:100240003B214C215D21211531054105510521F04E
:1002500021E030E040E050E059016A01A628B728CB
:10026000C828D9280BC0821593052CF01C01AA249C
:10027000BB24650103C0EE24FF24870111969C91E5
:10028000D20111968C91981709F445C0992339F041
:10029000A80197012A193B094C095D0906C0A6016E
:1002A00095012E193F09400B510B57FD08C01182D3
:1002B0003382228224833583468357831DC081E0A5
:1002C00081833382228288279927DC01821B930B4A
:1002D000A40BB50B84839583A683B7830DC0220F2F
:1002E000331F441F551F24833583468357838281E0
:1002F000938101979383828324813581468157813D
:10030000DA01C9010197A109B1098F5F9F4FAF4F72
:10031000BF4328F30BC0918333822282EA0CFB1C7B
:100320000C1D1D1DE482F5820683178383E0808304
:10033000248135814681578157FF1AC0C901AA27F8
:1003400097FDA095BA2F81709070A070B0705695EF
:10035000479537952795822B932BA42BB52B848318
:100360009583A683B7838281938101969383828349
:10037000DF0101C0D201CD01CDB7DEB7E2E10C94BF
:10038000AC22A0E2B0E0E7ECF1E00C949C2269839F
:100390007A838B839C832D833E834F835887E9E048
:1003A000EE2EF12CEC0EFD1ECE010196B7010E943F
:1003B000D2048E010F5E1F4FCE010596B8010E9438
:1003C000D2048A8991E089278A8BC701B801AE01DE
:1003D000475E5F4F0E9475000E94FD03A096E6E015
:1003E0000C94B822A0E2B0E0E8EFF1E00C949C227B
:1003F00069837A838B839C832D833E834F835887C5
:10040000F9E0EF2EF12CEC0EFD1ECE010196B701A6
:100410000E94D2048E010F5E1F4FCE010596B801D7
:100420000E94D204C701B801AE01475E5F4F0E942F
:1004300075000E94FD03A096E6E00C94B822A0E2AD
:10044000B0E0E5E2F2E00C94902269837A838B833A
:100450009C832D833E834F835887CE010196BE0136
:10046000675F7F4F0E94D204CE010596BE016F5E8A
:100470007F4F0E94D2049985923088F0898982301A
:10048000C8F0943019F4823051F404C0843029F457
:10049000923081F488E790E0C6C0923049F420E0C1
:1004A0009A858A89981321E02A87CE010996BBC0D4
:1004B000823049F420E09A858A89981321E02A8BBA
:1004C000CE014196B0C02D843E844F8458886D88FB
:1004D0007E888F88988CEE24FF248701AA24BB2471
:1004E000650140E050E060E070E0E0E0F0E0C10174
:1004F00081709070892BE9F0E60CF71C081D191D1E
:100500009A01AB012A0D3B1D4C1D5D1D80E090E062
:10051000A0E0B0E0E614F7040805190520F481E036
:1005200090E0A0E0B0E0BA01A901480F591F6A1F8E
:100530007B1FAA0CBB1CCC1CDD1C97FE08C081E0F5
:1005400090E0A0E0B0E0A82AB92ACA2ADB2A3196B6
:10055000E032F10549F0660C771C881C991C569412
:10056000479437942794C3CFFA85EA892B893C892D
:100570008B859C85280F391F2E5F3F4F17C0CA01FE
:1005800081709070892B61F016950795F794E79428
:1005900080E090E0A0E0B0E8E82AF92A0A2B1B2BC3
:1005A00076956795579547952F5F3F4F77FDE7CF36
:1005B0000CC0440F551F661F771F17FD4160EE0CDE
:1005C000FF1C001F111F21503040403090E05907A0
:1005D00090E0690790E4790760F32B8F3C8FDB0193
:1005E000CA018F779070A070B07080349105A1051A
:1005F000B10561F447FD0AC0E114F10401051105DC
:1006000029F0405C5F4F6F4F7F4F40781A8EFE1786
:1006100011F081E08A8F4D8F5E8F6F8F78A383E01A
:10062000898FCE0149960E94FD03A096E2E10C94C9
:10063000AC22A8E1B0E0EFE1F3E00C949C226983E6
:100640007A838B839C832D833E834F83588789E0F5
:10065000E82EF12CEC0EFD1ECE010196B7010E9492
:10066000D2048E010F5E1F4FCE010596B8010E9485
:10067000D2048985823040F08989823028F0C70110
:10068000B8010E944A0501C08FEF6896E6E00C941D
:10069000B822A8E1B0E0EFE4F3E00C949C22698377
:1006A0007A838B839C832D833E834F83588789E095
:1006B000E82EF12CEC0EFD1ECE010196B7010E9432
:1006C000D2048E010F5E1F4FCE010596B8010E9425
:1006D000D2048985823040F08989823028F0C701B0
:1006E000B8010E944A0501C08FEF6896E6E00C94BD
:1006F000B822A8E1B0E0EFE7F3E00C949C22698314
:100700007A838B839C832D833E834F83588789E034
:10071000E82EF12CEC0EFD1ECE010196B7010E94D1
:10072000D2048E010F5E1F4FCE010596B8010E94C4
:10073000D2048985823040F08989823028F0C7014F
:10074000B8010E944A0501C081E06896E6E00C9479
:10075000B822ACE0B0E0EFEAF3E00C94A0226983A9
:100760007A838B839C83CE010196BE016B5F7F4FA2
:100770000E94D2048D81823061F1823050F1843048
:1007800021F48E81882351F12EC02F81388537FDC9
:1007900020C06E812F3131051CF06623F9F023C093
:1007A0008EE190E0821B930B29853A854B855C8511
:1007B00004C056954795379527958A95D2F76623B5
:1007C000B1F050954095309521953F4F4F4F5F4F79
:1007D0000EC020E030E040E050E009C02FEF3FEFD6
:1007E0004FEF5FE704C020E030E040E050E8B9019F
:1007F000CA012C96E2E00C94BC22DF92EF92FF92A9
:100800000F931F93FC01E480F58006811781D1804E
:100810008081823048F480E090E0A0E1B0E0E82AF6
:10082000F92A0A2B1B2BA5C0843009F49FC0823003
:1008300021F4EE24FF24870105C0E114F104010531
:10084000110519F4E0E0F0E096C0628173819FEF3A
:10085000623879070CF05BC022E83FEF261B370BAC
:100860002A3131052CF020E030E040E050E02AC091
:10087000B801A701022E04C0769567955795479554
:100880000A94D2F781E090E0A0E0B0E004C0880FC5
:10089000991FAA1FBB1F2A95D2F70197A109B10979
:1008A0008E219F21A023B1230097A105B10521F03E
:1008B00081E090E0A0E0B0E09A01AB01282B392B59
:1008C0004A2B5B2BDA01C9018F779070A070B07052
:1008D00080349105A105B10539F427FF09C0205CDA
:1008E0003F4F4F4F5F4F04C0215C3F4F4F4F5F4F13
:1008F000E0E0F0E02030A0E03A07A0E04A07A0E402
:100900005A0710F0E1E0F0E079018A0127C0603871
:10091000710564F5FB01E158FF4FD801C7018F77DE
:100920009070A070B07080349105A105B10539F4C4
:10093000E7FE0DC080E490E0A0E0B0E004C08FE3EB
:1009400090E0A0E0B0E0E80EF91E0A1F1B1F17FFA1
:1009500005C016950795F794E794319687E01695AC
:100960000795F794E7948A95D1F705C0EE24FF2404
:100970008701EFEFF0E06E2F679566276795902F60
:100980009F77D794DD24D7948E2F8695492F462BB9
:10099000582F5D29B701CA011F910F91FF90EF9069
:1009A000DF900895FC01DB01408151812281622F9B
:1009B0006F7770E0221F2227221F9381892F880FD3
:1009C000822B282F30E0991F9927991F11969C930D
:1009D000119721153105A9F54115510561057105DD
:1009E00011F482E037C082E89FEF13969C938E93B8
:1009F00012979A01AB0167E0220F331F441F551F66
:100A00006A95D1F783E08C930DC0220F331F441FEA
:100A1000551F12968D919C911397019713969C9355
:100A20008E931297203080E0380780E0480780E4FA
:100A3000580758F314962D933D934D935C93179755
:100A400008952F3F310579F4411551056105710570
:100A500019F484E08C93089564FF03C081E08C93C3
:100A600012C01C9210C02F57304013963C932E9307
:100A7000129783E08C9387E0440F551F661F771F02
:100A80008A95D1F7706414964D935D936D937C9322
:100A9000179708951F93DC01FB019C91923008F495
:100AA00047C08081823008F443C0943051F41196DD
:100AB0001C91843099F58181682F70E0611B710968
:100AC0003FC0843021F0923031F48230B9F181811D
:100AD000882389F12DC011961C9111978230F1F075
:100AE00081811817D9F412962D913C911397828128
:100AF00093818217930794F028173907BCF0149656
:100B00008D919D910D90BC91A02D248135814681C0
:100B10005781281739074A075B0718F4112341F05A
:100B20000AC082179307A407B50740F4112319F0F0
:100B300061E070E005C06FEF7FEF02C060E070E041
:100B4000CB011F910895DF93CF93CDB7DEB7A3E517
:100B5000B0E0E3E5F0E080818F7B8C93A3E5B0E02B
:100B6000E3E5F0E0808188608C93A9E5B0E0E9E5F9
:100B7000F0E0808182608C93A3E5B0E0E3E5F0E0F3
:100B8000808181608C93A3E5B0E0E3E5F0E08081B3
:100B90008D7F8C93A3E5B0E0E3E5F0E08081846095
:100BA0008C93CF91DF910895DF93CF9300D0CDB791
:100BB000DEB79A838983E2E5F0E0898180830F9034
:100BC0000F90CF91DF910895DF93CF9300D0CDB7F1
:100BD000DEB79A83898389819A81009731F0898170
:100BE0009A819093A1008093A0000F900F90CF91D5
:100BF000DF9108951F920F920FB60F9211242F9339
:100C00003F934F935F936F937F938F939F93AF9394
:100C1000BF93EF93FF93DF93CF93CDB7DEB7809170
:100C2000A0009091A100009729F0E091A000F09120
:100C3000A1000995CF91DF91FF91EF91BF91AF9105
:100C40009F918F917F916F915F914F913F912F91E4
:100C50000F900FBE0F901F901895DF93CF93CDB7D5
:100C6000DEB7A5E5B0E0E5E5F0E080818E7F8C930E
:100C7000A5E5B0E0E5E5F0E0808182608C93CF915E
:100C8000DF910895DF93CF93CDB7DEB7AFE5B0E046
:100C9000EFE5F0E0808180688C93CF91DF9108953B
:100CA000DF93CF93CDB7DEB7AFE5B0E0EFE5F0E08F
:100CB00080818F778C93CF91DF910895DF93CF93CD
:100CC00000D000D000D0CDB7DEB789836A838A8197
:100CD000833008F0D0C08A81882F90E00697880F73
:100CE000991F8A838981282F30E03E832D838D814F
:100CF0009E818130910509F495C02D813E8122307D
:100D0000310534F48D819E81009709F461C0D1C012
:100D10002D813E812230310531F08D819E818330DD
:100D2000910561F1C6C0A5E5B0E0E5E5F0E08081A0
:100D3000482F8A81282F30E081E090E002C0880FA0
:100D4000991F2A95E2F7809584238C93A5E5B0E05E
:100D5000E5E5F0E08081482F8A81882F90E09C01B2
:100D60002F5F3F4F81E090E0022E02C0880F991F55
:100D70000A94E2F7809584238C939BC0A5E5B0E0AC
:100D8000E5E5F0E08081482F8A81282F30E081E07E
:100D900090E002C0880F991F2A95E2F7842B8C936C
:100DA000A5E5B0E0E5E5F0E08081482F8A81882F55
:100DB00090E09C012F5F3F4F81E090E0022E02C047
:100DC000880F991F0A94E2F7809584238C9371C051
:100DD000A5E5B0E0E5E5F0E08081482F8A81282F85
:100DE00030E081E090E002C0880F991F2A95E2F779
:100DF000809584238C93A5E5B0E0E5E5F0E0808163
:100E0000482F8A81882F90E09C012F5F3F4F81E01F
:100E100090E0022E02C0880F991F0A94E2F7842BFB
:100E20008C9347C0A5E5B0E0E5E5F0E08081482F70
:100E30008A81282F30E081E090E002C0880F991F5E
:100E40002A95E2F7842B8C93A5E5B0E0E5E5F0E088
:100E50008081482F8A81882F90E09C012F5F3F4F2F
:100E600081E090E0022E02C0880F991F0A94E2F7F9
:100E7000842B8C931EC08981282F30E03C832B83E8
:100E80008B819C81009731F02B813C812130310591
:100E900049F00FC0A4E5B0E0E4E5F0E080818F7B8D
:100EA0008C9307C0A4E5B0E0E4E5F0E080818064C5
:100EB0008C9326960FB6F894DEBF0FBECDBFCF91B0
:100EC000DF910895DF93CF9300D000D0CDB7DEB788
:100ED0008A8382E089838A81282F30E03C832B83B8
:100EE0008B819C8181309105D1F12B813C81223015
:100EF0003105E9F08B819C81009709F048C0ABE592
:100F0000B0E0EBE5F0E08081482F8A81882F90E007
:100F10009C012A5F3F4F81E090E0022E02C0880FC3
:100F2000991F0A94E2F7809584238C9331C0ABE536
:100F3000B0E0EBE5F0E08081482F8A81882F90E0D7
:100F40009C012B5F3F4F81E090E0022E02C0880F92
:100F5000991F0A94E2F7809584238C9319C0ABE51E
:100F6000B0E0EBE5F0E08081482F8A81882F90E0A7
:100F70009C012C5F3F4F81E090E0022E02C0880F61
:100F8000991F0A94E2F7809584238C9301C01982FB
:100F900089810F900F900F900F90CF91DF9108955E
:100FA000DF93CF9300D000D0CDB7DEB78A8382E045
:100FB00089838A81282F30E03C832B838B819C811D
:100FC00081309105C1F12B813C8122303105E1F066
:100FD0008B819C81009709F045C0ABE5B0E0EBE563
:100FE000F0E08081482F8A81882F90E09C012A5F61
:100FF0003F4F81E090E0022E02C0880F991F0A94B3
:10100000E2F7842B8C932FC0ABE5B0E0EBE5F0E08A
:101010008081482F8A81882F90E09C012B5F3F4F71
:1010200081E090E0022E02C0880F991F0A94E2F737
:10103000842B8C9318C0ABE5B0E0EBE5F0E0808149
:10104000482F8A81882F90E09C012C5F3F4F81E0E0
:1010500090E0022E02C0880F991F0A94E2F7842BB9
:101060008C9301C0198289810F900F900F900F907F
:10107000CF91DF910895DF93CF930F92CDB7DEB775
:101080008983AAE5B0E0EAE5F0E08081482F898114
:10109000282F30E081E090E0022E02C0880F991FD7
:1010A0000A94E2F7842B8C930F90CF91DF910895EF
:1010B000DF93CF9300D0CDB7DEB78983EAE5F0E0C8
:1010C00080810F900F90CF91DF910895DF93CF93A0
:1010D00000D00F92CDB7DEB79A8389836B83898165
:1010E0009A81009761F08B81882F90E0880F991F7B
:1010F000FC01EE55FF4F89819A81918380830F9087
:101100000F900F90CF91DF9108951F920F920FB61D
:101110000F9211242F933F934F935F936F937F937D
:101120008F939F93AF93BF93EF93FF93DF93CF93EF
:10113000CDB7DEB78091A2009091A300009741F057
:10114000E091A200F091A300099586E00E943B087F
:10115000CF91DF91FF91EF91BF91AF919F918F91CF
:101160007F916F915F914F913F912F910F900FBEA3
:101170000F901F9018951F920F920FB60F92112487
:101180002F933F934F935F936F937F938F939F938F
:10119000AF93BF93EF93FF93DF93CF93CDB7DEB7BA
:1011A0008091A4009091A500009741F0E091A400E7
:1011B000F091A500099587E00E943B08CF91DF914F
:1011C000FF91EF91BF91AF919F918F917F916F911F
:1011D0005F914F913F912F910F900FBE0F901F90F5
:1011E00018951F920F920FB60F9211242F933F93D1
:1011F0004F935F936F937F938F939F93AF93BF931F
:10120000EF93FF93DF93CF93CDB7DEB78091A60026
:101210009091A700009741F0E091A600F091A700FF
:10122000099585E00E943B08CF91DF91FF91EF91F6
:10123000BF91AF919F918F917F916F915F914F91EE
:101240003F912F910F900FBE0F901F901895DF9335
:10125000CF93CDB7DEB72E970FB6F894DEBF0FBE93
:10126000CDBF8B836C838B819AE0692F0E946222B1
:101270008A838B819AE0692F0E946222892F898359
:101280008A81282F30E03E872D878D859E8582308C
:10129000910509F450C02D853E852330310534F485
:1012A0008D859E858130910571F0ECC02D853E8540
:1012B0002330310509F477C08D859E8584309105F2
:1012C00009F4A9C0DFC08C81282F30E03C872B8730
:1012D0008B859C85009731F02B853C85213031052D
:1012E000B1F0D0C0AAE3B0E0EAE3F0E08081482F9B
:1012F0008981282F30E081E090E0022E02C0880F23
:10130000991F0A94E2F7809584238C93BBC0AAE3CB
:10131000B0E0EAE3F0E08081482F8981282F30E0B7
:1013200081E090E0022E02C0880F991F0A94E2F734
:10133000842B8C93A7C08C81282F30E03A87298793
:1013400089859A85009731F029853A8521303105C4
:10135000B1F098C0A7E3B0E0E7E3F0E08081482F68
:101360008981282F30E081E090E0022E02C0880FB2
:10137000991F0A94E2F7809584238C9383C0A7E396
:10138000B0E0E7E3F0E08081482F8981282F30E04A
:1013900081E090E0022E02C0880F991F0A94E2F7C4
:1013A000842B8C936FC08C81282F30E038872F835B
:1013B0008F819885009731F02F8138852130310554
:1013C000B1F060C0A4E3B0E0E4E3F0E08081482F36
:1013D0008981282F30E081E090E0022E02C0880F42
:1013E000991F0A94E2F7809584238C934BC0A4E361
:1013F000B0E0E4E3F0E08081482F8981282F30E0DD
:1014000081E090E0022E02C0880F991F0A94E2F753
:10141000842B8C9337C08C81282F30E03E832D8322
:101420008D819E81009731F02D813E8121303105E3
:10143000B1F028C0A1E3B0E0E1E3F0E08081482F03
:101440008981282F30E081E090E0022E02C0880FD1
:10145000991F0A94E2F7809584238C9313C0A1E32B
:10146000B0E0E1E3F0E08081482F8981282F30E06F
:1014700081E090E0022E02C0880F991F0A94E2F7E3
:10148000842B8C932E960FB6F894DEBF0FBECDBF83
:10149000CF91DF910895DF93CF93CDB7DEB72E972D
:1014A0000FB6F894DEBF0FBECDBF8B836C838B81EC
:1014B0009AE0692F0E9462228A838B819AE0692FC9
:1014C0000E946222892F89838A81282F30E03E87FB
:1014D0002D878D859E858230910509F450C02D851C
:1014E0003E852330310534F48D859E85813091050C
:1014F00071F0ECC02D853E852330310509F477C0AD
:101500008D859E858430910509F4A9C0DFC08C814A
:10151000282F30E03C872B878B859C85009731F006
:101520002B853C8521303105B1F0D0C0ABE3B0E074
:10153000EBE3F0E08081482F8981282F30E081E0C3
:1015400090E0022E02C0880F991F0A94E2F780955E
:1015500084238C93BBC0ABE3B0E0EBE3F0E080818D
:10156000482F8981282F30E081E090E0022E02C0D0
:10157000880F991F0A94E2F7842B8C93A7C08C8163
:10158000282F30E03A87298789859A85009731F09E
:1015900029853A8521303105B1F098C0A8E3B0E043
:1015A000E8E3F0E08081482F8981282F30E081E056
:1015B00090E0022E02C0880F991F0A94E2F78095EE
:1015C00084238C9383C0A8E3B0E0E8E3F0E080815B
:1015D000482F8981282F30E081E090E0022E02C060
:1015E000880F991F0A94E2F7842B8C936FC08C812B
:1015F000282F30E038872F838F819885009731F02E
:101600002F81388521303105B1F060C0A5E3B0E00D
:10161000E5E3F0E08081482F8981282F30E081E0E8
:1016200090E0022E02C0880F991F0A94E2F780957D
:1016300084238C934BC0A5E3B0E0E5E3F0E0808128
:10164000482F8981282F30E081E090E0022E02C0EF
:10165000880F991F0A94E2F7842B8C9337C08C81F2
:10166000282F30E03E832D838D819E81009731F0BD
:101670002D813E8121303105B1F028C0A2E3B0E0D8
:10168000E2E3F0E08081482F8981282F30E081E07B
:1016900090E0022E02C0880F991F0A94E2F780950D
:1016A00084238C9313C0A2E3B0E0E2E3F0E08081F6
:1016B000482F8981282F30E081E090E0022E02C07F
:1016C000880F991F0A94E2F7842B8C932E960FB6FD
:1016D000F894DEBF0FBECDBFCF91DF910895DF93A9
:1016E000CF9300D000D0CDB7DEB789836A838981DC
:1016F000282F30E03C832B838B819C8182309105A5
:10170000D9F02B813C812330310534F48B819C81CD
:101710008130910561F01EC02B813C812330310561
:1017200081F08B819C818430910581F013C0EBE3C3
:10173000F0E08A8180830EC0E8E3F0E08A81808354
:1017400009C0E5E3F0E08A81808304C0E2E3F0E0D1
:101750008A8180830F900F900F900F90CF91DF912F
:101760000895DF93CF9300D000D0CDB7DEB7898343
:101770006A838981282F30E03C832B838B819C8175
:1017800082309105D9F02B813C812330310534F42E
:101790008B819C818130910561F01EC02B813C8141
:1017A0002330310581F08B819C818430910581F05B
:1017B00013C0EAE3F0E08A8180830EC0E7E3F0E043
:1017C0008A81808309C0E4E3F0E08A81808304C0D9
:1017D000E1E3F0E08A8180830F900F900F900F90EB
:1017E000CF91DF910895DF93CF93CDB7DEB72797E1
:1017F0000FB6F894DEBF0FBECDBF8B837D836C83A5
:101800008B819AE0692F0E9462228A838B819AE001
:10181000692F0E946222892F89838A81282F30E0D4
:101820003F832E834E815F814230510559F18E8175
:101830009F818330910534F42E813F812130310521
:1018400069F05BC04E815F814330510579F18E8133
:101850009F818430910509F43DC04FC0E9E3F0E079
:101860008081282F30E08981882F90E0A90102C073
:10187000559547958A95E2F7CA018170EC81FD8103
:1018800080833BC0E6E3F0E08081282F30E089814F
:10189000882F90E0A90102C0559547958A95E2F7F7
:1018A000CA018170EC81FD81808327C0E3E3F0E011
:1018B0008081282F30E08981882F90E0A90102C023
:1018C000559547958A95E2F7CA018170EC81FD81B3
:1018D000808313C0E0E3F0E08081282F30E089812D
:1018E000882F90E0A90102C0559547958A95E2F7A7
:1018F000CA018170EC81FD81808327960FB6F89430
:10190000DEBF0FBECDBFCF91DF910895DF93CF93A0
:1019100000D000D00F92CDB7DEB78B838B819AE0D9
:10192000692F0E9462228A838B819AE0692F0E942C
:101930006222892F89838A81282F30E03D832C837E
:101940008C819D818230910551F12C813D81233024
:10195000310534F48C819D818130910561F05AC04C
:101960002C813D812330310571F18C819D81843042
:101970009105E9F14FC0ABE3B0E0EBE3F0E080812B
:10198000482F8981282F30E081E090E0022E02C0AC
:10199000880F991F0A94E2F784278C933BC0A8E331
:1019A000B0E0E8E3F0E08081482F8981282F30E023
:1019B00081E090E0022E02C0880F991F0A94E2F79E
:1019C00084278C9327C0A5E3B0E0E5E3F0E08081B5
:1019D000482F8981282F30E081E090E0022E02C05C
:1019E000880F991F0A94E2F784278C9313C0A2E30F
:1019F000B0E0E2E3F0E08081482F8981282F30E0D9
:101A000081E090E0022E02C0880F991F0A94E2F74D
:101A100084278C930F900F900F900F900F90CF9181
:101A2000DF910895DF93CF9300D000D00F92CDB710
:101A3000DEB789837B836A838981282F30E03D83E9
:101A40002C838C819D8182309105E9F02C813D8130
:101A50002330310534F48C819D818130910561F012
:101A600026C02C813D8123303105A1F08C819D81E0
:101A700084309105B1F01BC0E9E3F0E08081EA8198
:101A8000FB81808314C0E6E3F0E08081EA81FB8182
:101A900080830DC0E3E3F0E08081EA81FB818083F5
:101AA00006C0E0E3F0E08081EA81FB8180830F9053
:101AB0000F900F900F900F90CF91DF910895DF93CB
:101AC000CF93CDB7DEB7A7E2B0E0E7E2F0E08081E8
:101AD00080648C93A7E2B0E0E7E2F0E080818F774A
:101AE0008C93A7E2B0E0E7E2F0E080818F7D8C93F9
:101AF000A6E2B0E0E6E2F0E0808181608C93A6E2AD
:101B0000B0E0E6E2F0E0808182608C93A6E2B0E093
:101B1000E6E2F0E0808184608C93CF91DF910895BC
:101B2000DF93CF93CDB7DEB7A6E2B0E0E6E2F0E018
:101B3000808180688C93CF91DF910895DF93CF935C
:101B4000CDB7DEB7A6E2B0E0E6E2F0E080818F77C5
:101B50008C93CF91DF910895DF93CF930F92CDB700
:101B6000DEB78983A7E2B0E0E7E2F0E08081807E23
:101B70008C93A7E2B0E0E7E2F0E090818981892BC5
:101B80008C93A6E2B0E0E6E2F0E0808180648C9382
:101B9000E6E2F0E0808182958F70882F90E081707E
:101BA00090700097A9F30F90CF91DF910895DF9384
:101BB000CF93CDB7DEB7E4E2F0E080819181CF91A1
:101BC000DF910895DF93CF9300D000D0CDB7DEB77B
:101BD0009C838B838B819C81CC01A0E0B0E028E8C2
:101BE00033E140E050E0BC01CD010E944322DC0122
:101BF000CB01072E7AE0B695A795979587957A95AC
:101C0000D1F7702D9A83898389819A810F900F90E3
:101C10000F900F90CF91DF910895DF93CF930F92A4
:101C2000CDB7DEB78983A7E2B0E0E7E2F0E08081DC
:101C3000807E8C93A7E2B0E0E7E2F0E090818981BA
:101C4000892B8C93A6E2B0E0E6E2F0E0808180642C
:101C50008C930E944206A6E2B0E0E6E2F0E08081CA
:101C600088608C930F90CF91DF910895DF93CF938D
:101C700000D0CDB7DEB79A83898389819A81009796
:101C800031F089819A819093A9008093A8000F90E8
:101C90000F90CF91DF9108951F920F920FB60F9280
:101CA00011242F933F934F935F936F937F938F9361
:101CB0009F93AF93BF93EF93FF93DF93CF93CDB7F2
:101CC000DEB78091A8009091A900009729F0E091DB
:101CD000A800F091A9000995CF91DF91FF91EF91B4
:101CE000BF91AF919F918F917F916F915F914F9134
:101CF0003F912F910F900FBE0F901F901895DF937B
:101D0000CF9300D000D0CDB7DEB789836A838981B5
:101D1000282F30E03C832B838B819C81813091057F
:101D2000D1F02B813C81223031052CF48B819C81B8
:101D3000009761F01EC02B813C812230310581F07B
:101D40008B819C818330910581F013C0EAE3F0E040
:101D50008A8180830EC0E7E3F0E08A81808309C036
:101D6000E4E3F0E08A81808304C0E1E3F0E08A816B
:101D700080830F900F900F900F90CF91DF91089577
:101D8000DF93CF9300D000D0CDB7DEB789836A83CD
:101D90008981282F30E03C832B838B819C8181308B
:101DA0009105D1F02B813C81223031052CF48B81BF
:101DB0009C81009761F01EC02B813C81223031054F
:101DC00081F08B819C818330910581F013C0EBE31E
:101DD000F0E08A8180830EC0E2E3F0E08A818083B4
:101DE00009C0E5E3F0E08A81808304C0E2E3F0E02B
:101DF0008A8180830F900F900F900F90CF91DF9189
:101E00000895DF93CF93CDB7DEB727970FB6F89439
:101E1000DEBF0FBECDBF89836A834B838A81883042
:101E200008F0EAC08B81813009F06FC08981282FCA
:101E300030E03F832E838E819F818130910549F16F
:101E40002E813F81223031052CF48E819F810097B5
:101E500061F0D2C02E813F812230310571F18E8137
:101E60009F8183309105E9F1C7C0AAE3B0E0EAE3BE
:101E7000F0E08081482F8A81282F30E081E090E0D7
:101E8000022E02C0880F991F0A94E2F7842B8C93CC
:101E9000B3C0A7E3B0E0E7E3F0E08081482F8A8198
:101EA000282F30E081E090E0022E02C0880F991FB9
:101EB0000A94E2F7842B8C939FC0A4E3B0E0E4E3A0
:101EC000F0E08081482F8A81282F30E081E090E087
:101ED000022E02C0880F991F0A94E2F7842B8C937C
:101EE0008BC0A1E3B0E0E1E3F0E08081482F8A817C
:101EF000282F30E081E090E0022E02C0880F991F69
:101F00000A94E2F7842B8C9377C08B81882309F0A5
:101F100073C08981282F30E03D832C838C819D8183
:101F20008130910559F12C813D81223031052CF40D
:101F30008C819D81009769F05FC02C813D812230AA
:101F4000310589F18C819D818330910509F440C070
:101F500053C0AAE3B0E0EAE3F0E08081482F8A8131
:101F6000282F30E081E090E0022E02C0880F991FF8
:101F70000A94E2F7809584238C933EC0A7E3B0E0F7
:101F8000E7E3F0E08081482F8A81282F30E081E06C
:101F900090E0022E02C0880F991F0A94E2F7809504
:101FA00084238C9329C0A4E3B0E0E4E3F0E08081D3
:101FB000482F8A81282F30E081E090E0022E02C075
:101FC000880F991F0A94E2F7809584238C9314C09C
:101FD000A1E3B0E0E1E3F0E08081482F8A81282F7F
:101FE00030E081E090E0022E02C0880F991F0A9431
:101FF000E2F7809584238C9327960FB6F894DEBF82
:102000000FBECDBFCF91DF910895DF93CF93CDB7B2
:10201000DEB727970FB6F894DEBF0FBECDBF89831A
:102020006A834B838A81883008F0EAC08B818130D3
:1020300009F06FC08981282F30E03F832E838E8185
:102040009F818130910549F12E813F8122303105F8
:102050002CF48E819F81009761F0D2C02E813F8148
:102060002230310571F18E819F8183309105E9F134
:10207000C7C0ABE3B0E0EBE3F0E08081482F8A819A
:10208000282F30E081E090E0022E02C0880F991FD7
:102090000A94E2F7842B8C93B3C0A8E3B0E0E8E3A2
:1020A000F0E08081482F8A81282F30E081E090E0A5
:1020B000022E02C0880F991F0A94E2F7842B8C939A
:1020C0009FC0A5E3B0E0E5E3F0E08081482F8A817E
:1020D000282F30E081E090E0022E02C0880F991F87
:1020E0000A94E2F7842B8C938BC0A2E3B0E0E2E386
:1020F000F0E08081482F8A81282F30E081E090E055
:10210000022E02C0880F991F0A94E2F7842B8C9349
:1021100077C08B81882309F073C08981282F30E034
:102120003D832C838C819D818130910559F12C81D7
:102130003D81223031052CF48C819D81009769F01E
:102140005FC02C813D812230310589F18C819D81D8
:102150008330910509F440C053C0ABE3B0E0EBE33A
:10216000F0E08081482F8A81282F30E081E090E0E4
:10217000022E02C0880F991F0A94E2F780958423EB
:102180008C933EC0A8E3B0E0E8E3F0E08081482F04
:102190008A81282F30E081E090E0022E02C0880F73
:1021A000991F0A94E2F7809584238C9329C0A5E3B4
:1021B000B0E0E5E3F0E08081482F8A81282F30E00D
:1021C00081E090E0022E02C0880F991F0A94E2F786
:1021D000809584238C9314C0A2E3B0E0E2E3F0E0A6
:1021E0008081482F8A81282F30E081E090E0022E04
:1021F00002C0880F991F0A94E2F7809584238C937C
:1022000027960FB6F894DEBF0FBECDBFCF91DF91FA
:102210000895DF93CF9300D000D00F92CDB7DEB7F3
:102220008A836B838A81282F30E03D832C834C8105
:102230005D814130510541F18C819D818230910554
:1022400034F42C813D812115310561F052C04C815F
:102250005D814230510551F18C819D818330910522
:10226000B9F147C0E9E3F0E08081282F30E08B81AD
:10227000882F90E0A90102C0559547958A95E2F70D
:10228000CA018170898335C0E6E3F0E08081282FA0
:1022900030E08B81882F90E0A90102C055954795C9
:1022A0008A95E2F7CA018170898323C0E3E3F0E0F5
:1022B0008081282F30E08B81882F90E0A90102C017
:1022C000559547958A95E2F7CA018170898311C0B7
:1022D000E0E3F0E08081282F30E08B81882F90E0D0
:1022E000A90102C0559547958A95E2F7CA01817008
:1022F000898389810F900F900F900F900F90CF914D
:10230000DF910895DF93CF9300D000D0CDB7DEB733
:1023100089836A838981282F30E03C832B838B81DA
:102320009C818130910549F12B813C81223031051E
:102330002CF48B819C81009761F05AC02B813C81E9
:102340002230310571F18B819C8183309105E9F157
:102350004FC0ABE3B0E0EBE3F0E08081482F8A812F
:10236000282F30E081E090E0022E02C0880F991FF4
:102370000A94E2F784278C933BC0A8E3B0E0E8E33B
:10238000F0E08081482F8A81282F30E081E090E0C2
:10239000022E02C0880F991F0A94E2F784278C93BB
:1023A00027C0A5E3B0E0E5E3F0E08081482F8A8113
:1023B000282F30E081E090E0022E02C0880F991FA4
:1023C0000A94E2F784278C9313C0A2E3B0E0E2E31F
:1023D000F0E08081482F8A81282F30E081E090E072
:1023E000022E02C0880F991F0A94E2F784278C936B
:1023F0000F900F900F900F90CF91DF910895DF9382
:10240000CF93CDB7DEB784E161E00E94270985E173
:1024100061E00E94270986E161E00E94270988E1C6
:1024200061E00E9427098DE061E00E9427098CE0AD
:1024300061E00E94270989E160E00E9427098AE1A2
:1024400060E00E9427098DE061E00E944B0A8CE069
:1024500061E00E944B0A82E0CF91DF910895DF9303
:10246000CF93CDB7DEB7A6970FB6F894DEBF0FBEF9
:10247000CDBF8AA382E089A38AA1843610F019A275
:102480000DC38AA19AE0692F0E946222892F88A336
:102490008AA19AE0692F0E9462228F8F1E8E1D8E64
:1024A000F7C288A1282F30E03EA32DA38DA19EA1C5
:1024B0008430910509F48BC02DA13EA12530310552
:1024C000ECF48DA19EA18130910509F44DC02DA1A0
:1024D0003EA1223031052CF48DA19EA1009799F1E7
:1024E000DBC02DA13EA12230310509F44EC08DA1E3
:1024F0009EA18330910509F459C0CEC02DA13EA103
:102500002730310509F496C08DA19EA18830910530
:102510006CF42DA13EA12530310509F469C08DA1CF
:102520009EA18630910509F474C0B6C02DA13EA1CC
:102530002830310509F48FC08DA19EA18930910505
:1025400009F49AC0A9C084E160E00E944B0A85E1C9
:1025500060E00E944B0A86E160E00E944B0A88E13D
:1025600060E00E944B0A98C084E161E00E944B0A3F
:1025700085E160E00E944B0A86E160E00E944B0A20
:1025800088E160E00E944B0A87C084E160E00E941D
:102590004B0A85E161E00E944B0A86E160E00E94FF
:1025A0004B0A88E160E00E944B0A76C084E161E05A
:1025B0000E944B0A85E161E00E944B0A86E160E0DF
:1025C0000E944B0A88E160E00E944B0A65C084E1EA
:1025D00060E00E944B0A85E160E00E944B0A86E1C0
:1025E00061E00E944B0A88E160E00E944B0A54C0FF
:1025F00084E161E00E944B0A85E160E00E944B0AA1
:1026000086E161E00E944B0A88E160E00E944B0A8B
:1026100043C084E160E00E944B0A85E161E00E94D2
:102620004B0A86E161E00E944B0A88E160E00E946B
:102630004B0A32C084E161E00E944B0A85E161E00F
:102640000E944B0A86E161E00E944B0A88E160E04B
:102650000E944B0A21C084E160E00E944B0A85E1A0
:1026600060E00E944B0A86E160E00E944B0A88E12C
:1026700061E00E944B0A10C084E161E00E944B0AB5
:1026800085E160E00E944B0A86E160E00E944B0A0F
:1026900088E161E00E944B0A8DE060E00E944B0AF5
:1026A0008CE061E00E944B0A80E090E0A0E8BFE38C
:1026B000898F9A8FAB8FBC8F698D7A8D8B8D9C8D16
:1026C00020E030E04AE755E40E941F02DC01CB0124
:1026D0008D8B9E8BAF8BB88F6D897E898F89988DFE
:1026E00020E030E040E85FE30E94790388232CF487
:1026F00081E090E09C8B8B8B3FC06D897E898F89B8
:10270000988D20E03FEF4FE757E40E941903181619
:102710004CF5698D7A8D8B8D9C8D20E030E040E208
:1027200051E40E941F02DC01CB01BC01CD010E94DB
:102730004900DC01CB019C8B8B8B0FC080E991E0C1
:102740009A8B898B89899A890197F1F79A8B898B62
:102750008B899C8901979C8B8B8B8B899C8900979B
:1027600069F714C06D897E898F89988D0E94490010
:10277000DC01CB019C8B8B8B8B899C89988B8F8701
:102780008F8598890197F1F7988B8F878DE061E0AD
:102790000E944B0A8F8D282F30E03CA32BA38BA1E6
:1027A0009CA18430910509F48BC02BA13CA125305C
:1027B0003105ECF48BA19CA18130910509F44DC049
:1027C0002BA13CA1223031052CF48BA19CA10097B8
:1027D00099F1DBC02BA13CA12230310509F44EC098
:1027E0008BA19CA18330910509F459C0CEC02BA1C7
:1027F0003CA12730310509F496C08BA19CA18830FB
:1028000091056CF42BA13CA12530310509F469C078
:102810008BA19CA18630910509F474C0B6C02BA190
:102820003CA12830310509F48FC08BA19CA18930CF
:10283000910509F49AC0A9C084E160E00E944B0AA6
:1028400085E160E00E944B0A86E160E00E944B0A4D
:1028500088E160E00E944B0A98C084E161E00E9438
:102860004B0A85E160E00E944B0A86E160E00E942D
:102870004B0A88E160E00E944B0A87C084E160E077
:102880000E944B0A85E161E00E944B0A86E160E00C
:102890000E944B0A88E160E00E944B0A76C084E106
:1028A00061E00E944B0A85E161E00E944B0A86E1EB
:1028B00060E00E944B0A88E160E00E944B0A65C01C
:1028C00084E160E00E944B0A85E160E00E944B0ACF
:1028D00086E161E00E944B0A88E160E00E944B0AB9
:1028E00054C084E161E00E944B0A85E160E00E94EF
:1028F0004B0A86E161E00E944B0A88E160E00E9499
:102900004B0A43C084E160E00E944B0A85E161E02C
:102910000E944B0A86E161E00E944B0A88E160E078
:102920000E944B0A32C084E161E00E944B0A85E1BB
:1029300061E00E944B0A86E161E00E944B0A88E157
:1029400060E00E944B0A21C084E160E00E944B0AD3
:1029500085E160E00E944B0A86E160E00E944B0A3C
:1029600088E161E00E944B0A10C084E161E00E94AE
:102970004B0A85E160E00E944B0A86E160E00E941C
:102980004B0A88E161E00E944B0A8DE061E00E9401
:102990004B0A8CE060E00E944B0A80E090E0A0E8E7
:1029A000BFE38B879C87AD87BE876B857C858D85D4
:1029B0009E8520E030E04AE755E40E941F02DC01DA
:1029C000CB018F839887A987BA876F81788589859E
:1029D0009A8520E030E040E85FE30E947903882395
:1029E0002CF481E090E09E838D833FC06F817885D9
:1029F00089859A8520E03FEF4FE757E40E9419034D
:102A000018164CF56B857C858D859E8520E030E021
:102A100040E251E40E941F02DC01CB01BC01CD0168
:102A20000E944900DC01CB019E838D830FC080E9A9
:102A300091E09C838B838B819C810197F1F79C8330
:102A40008B838D819E8101979E838D838D819E8155
:102A5000009769F714C06F81788589859A850E94EF
:102A60004900DC01CB019E838D838D819E819A83F9
:102A7000898389819A810197F1F79A8389838CE010
:102A800061E00E944B0A8D8D9E8D01969E8F8D8FE9
:102A90008D8D9E8D8A3F910508F403CD89A1A69660
:102AA0000FB6F894DEBF0FBECDBFCF91DF91089572
:102AB000DF93CF9300D00F92CDB7DEB79B838A838D
:102AC00082E08983EA81FB818081882391F0EA8119
:102AD000FB818081853068F4EA81FB81818160E03F
:102AE0000E942709EA81FB81818161E00E944B0AF3
:102AF00001C0198289810F900F900F90CF91DF91C3
:102B00000895DF93CF93CDB7DEB764970FB6F894EF
:102B1000DEBF0FBECDBF9A8B898B7C8B6B8B82E027
:102B20008F8781E0888BE989FA8981819E01205F06
:102B30003F4FB9010E94F30B8889882309F094C0A4
:102B400080E090E0A0EAB1E48B879C87AD87BE87E8
:102B50006B857C858D859E8520E030E04AE755E4D5
:102B60000E941F02DC01CB018F839887A987BA8757
:102B70006F81788589859A8520E030E040E85FE3C1
:102B80000E94790388232CF481E090E09E838D835A
:102B90003FC06F81788589859A8520E03FEF4FE7B8
:102BA00057E40E94190318164CF56B857C858D85BA
:102BB0009E8520E030E040E251E40E941F02DC01EB
:102BC000CB01BC01CD010E944900DC01CB019E83F9
:102BD0008D830FC080E991E09C838B838B819C81E6
:102BE0000197F1F79C838B838D819E8101979E8352
:102BF0008D838D819E81009769F714C06F817885E0
:102C000089859A850E944900DC01CB019E838D83D2
:102C10008D819E819A83898389819A810197F1F7B9
:102C20009A838983E989FA8981819E01205F3F4FD8
:102C3000B9010E94F30B8889882389F409C0E989C6
:102C4000FA8981819E01205F3F4FB9010E94F30BF9
:102C500088898823A1F3EB89FC89108209C0EB895C
:102C6000FC8981E0808304C0EB89FC8981E080835A
:102C70008F8564960FB6F894DEBF0FBECDBFCF919F
:102C8000DF910895DF93CF93CDB7DEB760970FB68E
:102C9000F894DEBF0FBECDBF888B81E08F879E0189
:102CA000215F3F4F8889B9010E94F30B8F858823EC
:102CB00009F08CC080E090E0A0EAB1E48B879C87AB
:102CC000AD87BE876B857C858D859E8520E030E055
:102CD0004AE755E40E941F02DC01CB018F839887ED
:102CE000A987BA876F81788589859A8520E030E049
:102CF00040E85FE30E94790388232CF481E090E0B0
:102D00009E838D833FC06F81788589859A8520E079
:102D10003FEF4FE757E40E94190318164CF56B85F7
:102D20007C858D859E8520E030E040E251E40E9464
:102D30001F02DC01CB01BC01CD010E944900DC0176
:102D4000CB019E838D830FC080E991E09C838B83B0
:102D50008B819C810197F1F79C838B838D819E8170
:102D600001979E838D838D819E81009769F714C0A2
:102D70006F81788589859A850E944900DC01CB01A5
:102D80009E838D838D819E819A83898389819A8197
:102D90000197F1F79A8389839E01215F3F4F8889CC
:102DA000B9010E94F30B8F85882369F407C09E0147
:102DB000215F3F4F8889B9010E94F30B8F858823DB
:102DC000B1F31F8605C081E08F8702C081E08F8745
:102DD0008F8560960FB6F894DEBF0FBECDBFCF9142
:102DE000DF910895DF93CF9300D000D0CDB7DEB749
:102DF0008A8382E089838A81282F30E03C832B8379
:102E00008B819C8182309105D9F02B813C812330CC
:102E1000310534F48B819C818130910561F01FC0B4
:102E20002B813C812330310581F08B819C81843062
:102E3000910581F014C08BE161E00E94270910C068
:102E40008FE061E00E9427090BC08EE061E00E94E4
:102E5000270906C080E161E00E94270901C01982AC
:102E600089810F900F900F900F90CF91DF9108956F
:102E7000DF93CF9300D000D0CDB7DEB78A8382E056
:102E800089838A81282F30E03C832B838B819C812E
:102E900082309105D9F02B813C812330310534F407
:102EA0008B819C818130910561F01FC02B813C8119
:102EB0002330310581F08B819C818430910581F034
:102EC00014C08BE161E00E944B0A10C08FE061E00A
:102ED0000E944B0A0BC08EE061E00E944B0A06C0C4
:102EE00080E161E00E944B0A01C0198289810F9044
:102EF0000F900F900F90CF91DF910895DF93CF93B4
:102F000000D000D0CDB7DEB78A8382E089838A8182
:102F1000282F30E03C832B838B819C81823091056C
:102F2000D9F02B813C812330310534F48B819C8195
:102F30008130910561F01FC02B813C812330310528
:102F400081F08B819C818430910581F014C08BE1EC
:102F500060E00E944B0A10C08FE060E00E944B0AC4
:102F60000BC08EE060E00E944B0A06C080E160E08A
:102F70000E944B0A01C0198289810F900F900F9017
:102F80000F90CF91DF910895DF93CF9300D000D0C1
:102F9000CDB7DEB78A8382E089838A81282F30E02B
:102FA0003C832B838B819C8182309105D1F02B81D6
:102FB0003C812330310534F48B819C818130910533
:102FC00061F01BC02B813C812330310571F08B8176
:102FD0009C818430910569F010C08BE10E94860CC1
:102FE0000DC08FE00E94860C09C08EE00E94860C06
:102FF00005C080E10E94860C01C0198289810F9072
:103000000F900F900F90CF91DF910895DF93CF93A2
:10301000CDB7DEB7E8970FB6F894DEBF0FBECDBFD1
:1030200080E090E0A0EFB1E48DAB9EABAFABB8AF6A
:103030006DA97EA98FA998AD20E030E04AE755E45C
:103040000E941F02DC01CB0189AB9AABABABBCABDE
:1030500069A97AA98BA99CA920E030E040E85FE348
:103060000E94790388232CF481E090E098AB8FA72D
:103070003FC069A97AA98BA99CA920E03FEF4FE73F
:1030800057E40E94190318164CF56DA97EA98FA963
:1030900098AD20E030E040E251E40E941F02DC01E4
:1030A000CB01BC01CD010E944900DC01CB0198ABF2
:1030B0008FA70FC080E991E09EA78DA78DA59EA543
:1030C0000197F1F79EA78DA78FA598A9019798ABB7
:1030D0008FA78FA598A9009769F714C069A97AA945
:1030E0008BA99CA90E944900DC01CB0198AB8FA75A
:1030F0008FA598A99CA78BA78BA59CA50197F1F7F5
:103100009CA78BA780E063E041E00E94010F80E074
:1031100062E041E00E94010F81E060E041E00E9436
:10312000010F81E061E041E00E94010F81E062E077
:1031300041E00E94010F81E064E041E00E94010F44
:1031400082E00E94631C88E20E94631C80E090E0A1
:10315000A0E0B0E48FA398A7A9A7BAA76FA178A50C
:1031600089A59AA520E030E04AE755E40E941F02B5
:10317000DC01CB018BA39CA3ADA3BEA36BA17CA15F
:103180008DA19EA120E030E040E85FE30E9479033A
:1031900088232CF481E090E09AA389A33FC06BA11F
:1031A0007CA18DA19EA120E03FEF4FE757E40E9454
:1031B000190318164CF56FA178A589A59AA520E0EA
:1031C00030E040E251E40E941F02DC01CB01BC016F
:1031D000CD010E944900DC01CB019AA389A30FC055
:1031E00080E991E098A38F8F8F8D98A10197F1F7D7
:1031F00098A38F8F89A19AA101979AA389A389A1E6
:103200009AA1009769F714C06BA17CA18DA19EA122
:103210000E944900DC01CB019AA389A389A19AA14C
:103220009E8F8D8F8D8D9E8D0197F1F79E8F8D8F47
:103230008CE00E94631C80E090E0A0E0B0E4898F05
:103240009A8FAB8FBC8F698D7A8D8B8D9C8D20E092
:1032500030E04AE755E40E941F02DC01CB018D8B70
:103260009E8BAF8BB88F6D897E898F89988D20E07A
:1032700030E040E85FE30E94790388232CF481E08A
:1032800090E09C8B8B8B3FC06D897E898F89988D58
:1032900020E03FEF4FE757E40E94190318164CF562
:1032A000698D7A8D8B8D9C8D20E030E040E251E479
:1032B0000E941F02DC01CB01BC01CD010E9449002C
:1032C000DC01CB019C8B8B8B0FC080E991E09A8B4A
:1032D000898B89899A890197F1F79A8B898B8B89D8
:1032E0009C8901979C8B8B8B8B899C89009769F7B4
:1032F00014C06D897E898F89988D0E944900DC01F8
:10330000CB019C8B8B8B8B899C89988B8F878F852E
:1033100098890197F1F7988B8F8781E00E94631C51
:1033200080E090E0A0E0B0E48B879C87AD87BE870B
:103330006B857C858D859E8520E030E04AE755E4ED
:103340000E941F02DC01CB018F839887A987BA876F
:103350006F81788589859A8520E030E040E85FE3D9
:103360000E94790388232CF481E090E09E838D8372
:103370003FC06F81788589859A8520E03FEF4FE7D0
:1033800057E40E94190318164CF56B857C858D85D2
:103390009E8520E030E040E251E40E941F02DC0103
:1033A000CB01BC01CD010E944900DC01CB019E8311
:1033B0008D830FC080E991E09C838B838B819C81FE
:1033C0000197F1F79C838B838D819E8101979E836A
:1033D0008D838D819E81009769F714C06F817885F8
:1033E00089859A850E944900DC01CB019E838D83EB
:1033F0008D819E819A83898389819A810197F1F7D2
:103400009A838983E8960FB6F894DEBF0FBECDBFCE
:10341000CF91DF910895DF93CF93CDB7DEB7E997D2
:103420000FB6F894DEBF0FBECDBF89AF80E062E07B
:1034300040E00E94051089AD982F991F9927991F88
:1034400081E064E0492F0E94051089AD8295869540
:1034500086958370982F917081E062E0492F0E94D9
:10346000051089AD829586958770982F917081E0BF
:1034700061E0492F0E94051089AD82958F70982FC9
:10348000917081E060E0492F0E94051080E062E0C9
:1034900041E00E94051080E090E0A0E8BFE38DAB22
:1034A0009EABAFABB8AF6DA97EA98FA998AD20E058
:1034B00030E04AE755E40E941F02DC01CB0189ABF2
:1034C0009AABABABBCAB69A97AA98BA99CA920E04C
:1034D00030E040E85FE30E94790388232CF481E028
:1034E00090E098AB8FA73FC069A97AA98BA99CA946
:1034F00020E03FEF4FE757E40E94190318164CF500
:103500006DA97EA98FA998AD20E030E040E251E49A
:103510000E941F02DC01CB01BC01CD010E944900C9
:10352000DC01CB0198AB8FA70FC080E991E09EA78B
:103530008DA78DA59EA50197F1F79EA78DA78FA5B5
:1035400098A9019798AB8FA78FA598A9009769F7BD
:1035500014C069A97AA98BA99CA90E944900DC0121
:10356000CB0198AB8FA78FA598A99CA78BA78BA5FC
:103570009CA50197F1F79CA78BA780E062E040E053
:103580000E94051080E090E0A0EFB1E48FA398A71F
:10359000A9A7BAA76FA178A589A59AA520E030E0D0
:1035A0004AE755E40E941F02DC01CB018BA39CA3D8
:1035B000ADA3BEA36BA17CA18DA19EA120E030E0B4
:1035C00040E85FE30E94790388232CF481E090E0D7
:1035D0009AA389A33FC06BA17CA18DA19EA120E0ED
:1035E0003FEF4FE757E40E94190318164CF56FA1FF
:1035F00078A589A59AA520E030E040E251E40E9438
:103600001F02DC01CB01BC01CD010E944900DC019D
:10361000CB019AA389A30FC080E991E098A38F8F73
:103620008F8D98A10197F1F798A38F8F89A19AA107
:1036300001979AA389A389A19AA1009769F714C059
:103640006BA17CA18DA19EA10E944900DC01CB0150
:103650009AA389A389A19AA19E8F8D8F8D8D9E8D0E
:103660000197F1F79E8F8D8F89AD8695869586950A
:10367000982F917081E064E0492F0E94051089AD78
:1036800086958695982F917081E062E0492F0E947F
:10369000051089AD8695982F917081E061E0492FE2
:1036A0000E94051089AD982F917081E060E0492F4C
:1036B0000E94051080E062E041E00E94051080E079
:1036C00090E0A0E8BFE3898F9A8FAB8FBC8F698DA4
:1036D0007A8D8B8D9C8D20E030E04AE755E40E9486
:1036E0001F02DC01CB018D8B9E8BAF8BB88F6D8958
:1036F0007E898F89988D20E030E040E85FE30E946A
:10370000790388232CF481E090E09C8B8B8B3FC065
:103710006D897E898F89988D20E03FEF4FE757E4D0
:103720000E94190318164CF5698D7A8D8B8D9C8D2E
:1037300020E030E040E251E40E941F02DC01CB01B6
:10374000BC01CD010E944900DC01CB019C8B8B8B1D
:103750000FC080E991E09A8B898B89899A890197BA
:10376000F1F79A8B898B8B899C8901979C8B8B8B2A
:103770008B899C89009769F714C06D897E898F8930
:10378000988D0E944900DC01CB019C8B8B8B8B892F
:103790009C89988B8F878F8598890197F1F7988BF3
:1037A0008F8780E062E040E00E94051080E090E0BA
:1037B000A0E7B1E48B879C87AD87BE876B857C854E
:1037C0008D859E8520E030E04AE755E40E941F0287
:1037D000DC01CB018F839887A987BA876F817885B1
:1037E00089859A8520E030E040E85FE30E94790314
:1037F00088232CF481E090E09E838D833FC06F810D
:10380000788589859A8520E03FEF4FE757E40E944D
:10381000190318164CF56B857C858D859E8520E0F7
:1038200030E040E251E40E941F02DC01CB01BC0108
:10383000CD010E944900DC01CB019E838D830FC026
:1038400080E991E09C838B838B819C810197F1F7C8
:103850009C838B838D819E8101979E838D838D8137
:103860009E81009769F714C06F81788589859A8554
:103870000E944900DC01CB019E838D838D819E8156
:103880009A83898389819A810197F1F79A83898341
:10389000E9960FB6F894DEBF0FBECDBFCF91DF9192
:1038A0000895DF93CF930F92CDB7DEB7898380E081
:1038B00063E041E00E94051089810E940B1A0F907D
:1038C000CF91DF910895DF93CF930F92CDB7DEB7FD
:1038D000898380E063E040E00E94051089810E94B6
:1038E0000B1A0F90CF91DF910895DF93CF9300D003
:1038F00000D000D0CDB7DEB79E838D8319821A82A7
:103900001B821C8215C029813A818D819E81FC0118
:10391000E20FF31F80810E94511C89819A81AB8143
:10392000BC810196A11DB11D89839A83AB83BC83A1
:1039300029813A818D819E81FC01E20FF31F8081F4
:10394000882309F726960FB6F894DEBF0FBECDBFC9
:10395000CF91DF910895DF93CF93CDB7DEB727974F
:103960000FB6F894DEBF0FBECDBF8E836F831A8271
:1039700080E48B8384E18C8384E58D838E81282F82
:1039800030E0CE010296FC01E20FF31F90818F819F
:10399000890F8983898180580E94631C27960FB6FE
:1039A000F894DEBF0FBECDBFCF91DF910895DF93B6
:1039B000CF93CDB7DEB781E00E94631CCF91DF913A
:1039C00008950F931F93DF93CF93CDB7DEB763971F
:1039D0000FB6F894DEBF0FBECDBF688B798B8A8B94
:1039E0009B8B88899989AA89BB898A839B83AC83AD
:1039F000BD8319828981082F10E08A819B81AC8167
:103A0000BD812AE030E040E050E0BC01CD010E94E1
:103A10006E22DC01CB01282F205DCE010696FC0131
:103A2000E00FF11F20838A819B81AC81BD812AE058
:103A300030E040E050E0BC01CD010E946E22DA018E
:103A4000C9018A839B83AC83BD8389818F5F89830E
:103A50008A819B81AC81BD810097A105B10551F69A
:103A600011C08981882F90E09C0121503040CE0107
:103A70000696FC01E20FF31F80810E94511C898190
:103A8000815089838981882361F763960FB6F89402
:103A9000DEBF0FBECDBFCF91DF911F910F91089573
:103AA000DF93CF93CDB7DEB783E261E00E942709B1
:103AB00082E261E00E94270981E261E00E94270919
:103AC00080E261E00E9427098FE260E00E942709FE
:103AD0008EE260E00E9427098DE260E00E942709E3
:103AE0008BE260E00E94270983E261E00E944B0ABA
:103AF00082E261E00E944B0A81E261E00E944B0A8F
:103B000080E261E00E944B0A82E0CF91DF9108954C
:103B1000DF93CF93CDB7DEB7E2970FB6F894DEBF51
:103B20000FBECDBF9DA78CA78FEF8A8B1F86CE01BE
:103B300044969FA78EA7E0E8F0E0F9ABE8ABF0E190
:103B4000FAABE8A9F9A9008088A999A9019699ABCF
:103B500088ABEEA5FFA500828EA59FA501969FA725
:103B60008EA79AA991509AABEAA9EE2351F783E266
:103B70008CA382E28DA381E28EA380E28FA38FE2E9
:103B800088A78EE289A78DE28AA78BE28BA7198A84
:103B9000E4C08989282F30E0CE018496FC01E20F31
:103BA000F31F808160E00E944B0A188AC3C0888995
:103BB000282F30E0CE018896FC01E20FF31F8081B0
:103BC0009E012D5E3F4FB9010E94F30B8B89882324
:103BD00009F0ADC080E090E0A0EAB1E48B879C875B
:103BE000AD87BE876B857C858D859E8520E030E026
:103BF0004AE755E40E941F02DC01CB018F839887BE
:103C0000A987BA876F81788589859A8520E030E019
:103C100040E85FE30E94790388232CF481E090E080
:103C20009E838D833FC06F81788589859A8520E04A
:103C30003FEF4FE757E40E94190318164CF56B85C8
:103C40007C858D859E8520E030E040E251E40E9435
:103C50001F02DC01CB01BC01CD010E944900DC0147
:103C6000CB019E838D830FC080E991E09C838B8381
:103C70008B819C810197F1F79C838B838D819E8141
:103C800001979E838D838D819E81009769F714C073
:103C90006F81788589859A850E944900DC01CB0176
:103CA0009E838D838D819E819A83898389819A8168
:103CB0000197F1F79A8389838889282F30E0CE0114
:103CC0008896FC01E20FF31F80819E012D5E3F4F1D
:103CD000B9010E94F30B8B89882349F50FC08889AD
:103CE000282F30E0CE018896FC01E20FF31F80817F
:103CF0009E012D5E3F4FB9010E94F30B8B898823F3
:103D000071F38989282F30E08889482F50E0220FED
:103D1000331F220F331FCE010196820F931F840F92
:103D2000951FFC01739680818A8B81E08F8788893B
:103D30008F5F888B8889843008F439CF8989282F50
:103D400030E0CE018496FC01E20FF31F808161E038
:103D50000E944B0A89898F5F898B8989843020F47E
:103D60008F85882309F415CFECA5FDA58A8980836A
:103D700082E0E2960FB6F894DEBF0FBECDBFCF91C2
:103D8000DF910895DF93CF93CDB7DEB7E0970FB6FD
:103D9000F894DEBF0FBECDBF8FEF8A8B1F86CE019A
:103DA00044969DA78CA7E0E9F0E0FFA7EEA7F0E11D
:103DB000F8ABEEA5FFA500808EA59FA501969FA755
:103DC0008EA7ECA5FDA500828CA59DA501969DA7BB
:103DD0008CA798A9915098ABE8A9EE2351F783E2FC
:103DE0008CA382E28DA381E28EA380E28FA38FE277
:103DF00088A78EE289A78DE28AA78BE28BA7198A12
:103E0000E4C08989282F30E0CE018496FC01E20FBE
:103E1000F31F808160E00E944B0A188AC3C0888922
:103E2000282F30E0CE018896FC01E20FF31F80813D
:103E30009E012D5E3F4FB9010E94F30B8B898823B1
:103E400009F0ADC080E090E0A0EAB1E48B879C87E8
:103E5000AD87BE876B857C858D859E8520E030E0B3
:103E60004AE755E40E941F02DC01CB018F8398874B
:103E7000A987BA876F81788589859A8520E030E0A7
:103E800040E85FE30E94790388232CF481E090E00E
:103E90009E838D833FC06F81788589859A8520E0D8
:103EA0003FEF4FE757E40E94190318164CF56B8556
:103EB0007C858D859E8520E030E040E251E40E94C3
:103EC0001F02DC01CB01BC01CD010E944900DC01D5
:103ED000CB019E838D830FC080E991E09C838B830F
:103EE0008B819C810197F1F79C838B838D819E81CF
:103EF00001979E838D838D819E81009769F714C001
:103F00006F81788589859A850E944900DC01CB0103
:103F10009E838D838D819E819A83898389819A81F5
:103F20000197F1F79A8389838889282F30E0CE01A1
:103F30008896FC01E20FF31F80819E012D5E3F4FAA
:103F4000B9010E94F30B8B89882349F50FC088893A
:103F5000282F30E0CE018896FC01E20FF31F80810C
:103F60009E012D5E3F4FB9010E94F30B8B89882380
:103F700071F38989282F30E08889482F50E0220F7B
:103F8000331F220F331FCE010196820F931F840F20
:103F9000951FFC01739680818A8B81E08F878889C9
:103FA0008F5F888B8889843008F439CF8989282FDE
:103FB00030E0CE018496FC01E20FF31F808161E0C6
:103FC0000E944B0A89898F5F898B8989843020F40C
:103FD0008F85882309F415CF8A89E0960FB6F89467
:103FE000DEBF0FBECDBFCF91DF910895DF93CF939A
:103FF000CDB7DEB7AC970FB6F894DEBF0FBECDBF1E
:104000001D82CE0106969F8F8E8FE0E6F0E0F9A329
:10401000E8A3FBE0FAA3E8A1F9A1008088A199A197
:10402000019699A388A3EE8DFF8D00828E8D9F8DC2
:1040300001969F8F8E8F9AA191509AA3EAA1EE23A9
:1040400051F71C828FEF8B831A821982CE01419621
:104050009CA38BA3EBE6F0E0FEA3EDA3F6E0FFA3A9
:10406000EDA1FEA100808DA19EA101969EA38DA32E
:10407000EBA1FCA100828BA19CA101969CA38BA328
:104080009FA191509FA3EFA1EE2351F7CE01479638
:1040900099A788A7E1E7F0E0FBA7EAA7F7E0FCA76C
:1040A000EAA5FBA500808AA59BA501969BA78AA7E8
:1040B000E8A5F9A5008288A599A5019699A788A7E2
:1040C0009CA591509CA7ECA5EE2351F784E261E0FA
:1040D0000E94270932C0CE0106960E94751C81E01D
:1040E00060E00E94AB1C1C821FC00E94C21E8B831A
:1040F0008B818F3FD1F38AE20E94511C89819A8182
:104100009C01220F331FC901880F991F880F991F27
:10411000280F391F8B81882F90E0820F931F9A837D
:1041200089838C818F5F8C838C818430F0F28D81C8
:104130008F5F8D8381E00E94631C8D81833030F41A
:1041400089819A81F4E0823D9F0729F689819A81CD
:1041500024E0823D920761F481E00E94631C80E0CC
:1041600065E00E94AB1CCE0141960E94751C12C0F6
:104170008D81833078F081E00E94631C80E064E0F0
:104180000E94AB1CCE0147960E94751C84E261E040
:104190000E944B0AAC960FB6F894DEBF0FBECDBF9F
:1041A000CF91DF9108950F931F93DF93CF93CDB7F6
:1041B000DEB72B970FB6F894DEBF0FBECDBF81E3FD
:1041C0008C8382E38D8383E38E8384E38F831886DD
:1041D00019861A861B8619821B8257C01A8238C01C
:1041E0008A81282F30E0CE010896FC01E20FF31FF0
:1041F00080818F3F51F180EC0E94631C8A81082FDF
:1042000010E08A81282F30E0CE010896FC01E20FF1
:10421000F31F8081882F90E00E94881D282FCE01F7
:104220000896FC01E00FF11F20838A81282F30E0DF
:10423000CE010896FC01E20FF31F8081882F90E0E9
:104240000E94881D8AE20E94511C8A818F5F8A83A6
:104250008A81843028F29C818885981781F49D8119
:104260008985981761F49E818A85981741F49F810A
:104270008B85981721F482E00E9438170AC0898143
:104280008F5F89838B818F5F8B838B81833008F471
:10429000A5CF8981833011F40E948A2119822B963F
:1042A0000FB6F894DEBF0FBECDBFCF91DF911F9147
:1042B0000F910895DF93CF930F92CDB7DEB782E0D1
:1042C000898383E261E00E94270989810F90CF9161
:1042D000DF910895DF93CF930F92CDB7DEB782E0E1
:1042E000898383E261E00E944B0A89810F90CF911C
:1042F000DF910895DF93CF930F92CDB7DEB782E0C1
:10430000898383E260E00E944B0A89810F90CF91FC
:10431000DF910895DF93CF93CDB7DEB72F970FB618
:10432000F894DEBF0FBECDBF82E08F8783E261E0ED
:104330000E944B0A80E090E0AAEFB3E48B879C8751
:10434000AD87BE876B857C858D859E8520E030E0BE
:104350004AE755E40E941F02DC01CB018F83988756
:10436000A987BA876F81788589859A8520E030E0B2
:1043700040E85FE30E94790388232CF481E090E019
:104380009E838D833FC06F81788589859A8520E0E3
:104390003FEF4FE757E40E94190318164CF56B8561
:1043A0007C858D859E8520E030E040E251E40E94CE
:1043B0001F02DC01CB01BC01CD010E944900DC01E0
:1043C000CB019E838D830FC080E991E09C838B831A
:1043D0008B819C810197F1F79C838B838D819E81DA
:1043E00001979E838D838D819E81009769F714C00C
:1043F0006F81788589859A850E944900DC01CB010F
:104400009E838D838D819E819A83898389819A8100
:104410000197F1F79A83898383E260E00E944B0A57
:104420008F852F960FB6F894DEBF0FBECDBFCF910C
:10443000DF910895DF93CF93CDB7DEB78091AA00C7
:104440008F5F8093AA008091AA008E3349F482E0A6
:104450000E94C4171092AA00E2E5F0E087EF808383
:10446000CF91DF910895DF93CF93CDB7DEB782E090
:104470000E94F2160E94A3058AE192E20E94E405DE
:104480000E944206FFCF629FD001739FF001829F7E
:10449000E00DF11D649FE00DF11D929FF00D839FD3
:1044A000F00D749FF00D659FF00D9927729FB00D70
:1044B000E11DF91F639FB00DE11DF91FBD01CF0183
:1044C00011240895991B79E004C0991F961708F0EC
:1044D000961B881F7A95C9F780950895A1E21A2E38
:1044E000AA1BBB1BFD010DC0AA1FBB1FEE1FFF1F98
:1044F000A217B307E407F50720F0A21BB30BE40BE8
:10450000F50B661F771F881F991F1A9469F760952E
:104510007095809590959B01AC01BD01CF010895E8
:104520002F923F924F925F926F927F928F929F92C3
:10453000AF92BF92CF92DF92EF92FF920F931F93B1
:10454000CF93DF93CDB7DEB7CA1BDB0B0FB6F89462
:10455000DEBF0FBECDBF09942A88398848885F84A2
:104560006E847D848C849B84AA84B984C884DF8013
:10457000EE80FD800C811B81AA81B981CE0FD11DF7
:104580000FB6F894DEBF0FBECDBFED010895F894CD
:02459000FFCF5B
:10459200456E74657220506173730068656C6C6F50
:1045A2000057726F6E6721000000000000000000DB
:1045B2000102030405060708090A0B0C0D0E0F1071
:1045C2000102030405060708090A0B0C0D0E0F1061
:00000001FF
